{"abi":[{"type":"constructor","inputs":[],"stateMutability":"nonpayable"},{"type":"function","name":"DEFAULT_ADMIN_ROLE","inputs":[],"outputs":[{"name":"","type":"bytes32","internalType":"bytes32"}],"stateMutability":"view"},{"type":"function","name":"UPGRADE_INTERFACE_VERSION","inputs":[],"outputs":[{"name":"","type":"string","internalType":"string"}],"stateMutability":"view"},{"type":"function","name":"WhitelistedLiquidators","inputs":[{"name":"user","type":"address","internalType":"address"}],"outputs":[{"name":"isWhitelisted","type":"bool","internalType":"bool"}],"stateMutability":"view"},{"type":"function","name":"_totalReservedMargin","inputs":[{"name":"user","type":"address","internalType":"address"}],"outputs":[{"name":"amount","type":"uint256","internalType":"uint256"}],"stateMutability":"view"},{"type":"function","name":"addMargin","inputs":[{"name":"marketId","type":"bytes32","internalType":"bytes32"},{"name":"amount","type":"uint256","internalType":"uint256"}],"outputs":[],"stateMutability":"nonpayable"},{"type":"function","name":"closePosition","inputs":[{"name":"marketId","type":"bytes32","internalType":"bytes32"},{"name":"size","type":"uint128","internalType":"uint128"},{"name":"priceLimitX18","type":"uint256","internalType":"uint256"}],"outputs":[],"stateMutability":"nonpayable"},{"type":"function","name":"deposit","inputs":[{"name":"token","type":"address","internalType":"address"},{"name":"amount","type":"uint256","internalType":"uint256"}],"outputs":[],"stateMutability":"nonpayable"},{"type":"function","name":"getAccountValue","inputs":[{"name":"account","type":"address","internalType":"address"}],"outputs":[{"name":"","type":"int256","internalType":"int256"}],"stateMutability":"view"},{"type":"function","name":"getMaintenanceMargin","inputs":[{"name":"account","type":"address","internalType":"address"},{"name":"marketId","type":"bytes32","internalType":"bytes32"}],"outputs":[{"name":"","type":"uint256","internalType":"uint256"}],"stateMutability":"view"},{"type":"function","name":"getMarginRatio","inputs":[{"name":"account","type":"address","internalType":"address"},{"name":"marketId","type":"bytes32","internalType":"bytes32"}],"outputs":[{"name":"","type":"uint256","internalType":"uint256"}],"stateMutability":"view"},{"type":"function","name":"getNotional","inputs":[{"name":"account","type":"address","internalType":"address"},{"name":"marketId","type":"bytes32","internalType":"bytes32"}],"outputs":[{"name":"","type":"uint256","internalType":"uint256"}],"stateMutability":"view"},{"type":"function","name":"getPosition","inputs":[{"name":"account","type":"address","internalType":"address"},{"name":"marketId","type":"bytes32","internalType":"bytes32"}],"outputs":[{"name":"","type":"tuple","internalType":"struct IClearingHouse.PositionView","components":[{"name":"size","type":"int256","internalType":"int256"},{"name":"margin","type":"uint256","internalType":"uint256"},{"name":"entryPriceX18","type":"uint256","internalType":"uint256"},{"name":"lastFundingIndex","type":"int256","internalType":"int256"},{"name":"realizedPnL","type":"int256","internalType":"int256"}]}],"stateMutability":"view"},{"type":"function","name":"getRoleAdmin","inputs":[{"name":"role","type":"bytes32","internalType":"bytes32"}],"outputs":[{"name":"","type":"bytes32","internalType":"bytes32"}],"stateMutability":"view"},{"type":"function","name":"grantRole","inputs":[{"name":"role","type":"bytes32","internalType":"bytes32"},{"name":"account","type":"address","internalType":"address"}],"outputs":[],"stateMutability":"nonpayable"},{"type":"function","name":"hasRole","inputs":[{"name":"role","type":"bytes32","internalType":"bytes32"},{"name":"account","type":"address","internalType":"address"}],"outputs":[{"name":"","type":"bool","internalType":"bool"}],"stateMutability":"view"},{"type":"function","name":"initialize","inputs":[{"name":"_vault","type":"address","internalType":"address"},{"name":"_marketRegistry","type":"address","internalType":"address"},{"name":"admin","type":"address","internalType":"address"}],"outputs":[],"stateMutability":"nonpayable"},{"type":"function","name":"isLiquidatable","inputs":[{"name":"account","type":"address","internalType":"address"},{"name":"marketId","type":"bytes32","internalType":"bytes32"}],"outputs":[{"name":"","type":"bool","internalType":"bool"}],"stateMutability":"view"},{"type":"function","name":"liquidate","inputs":[{"name":"account","type":"address","internalType":"address"},{"name":"marketId","type":"bytes32","internalType":"bytes32"},{"name":"size","type":"uint128","internalType":"uint128"}],"outputs":[],"stateMutability":"nonpayable"},{"type":"function","name":"marketRegistry","inputs":[],"outputs":[{"name":"","type":"address","internalType":"address"}],"stateMutability":"view"},{"type":"function","name":"marketRiskParams","inputs":[{"name":"marketId","type":"bytes32","internalType":"bytes32"}],"outputs":[{"name":"imrBps","type":"uint256","internalType":"uint256"},{"name":"mmrBps","type":"uint256","internalType":"uint256"},{"name":"liquidationPenaltyBps","type":"uint256","internalType":"uint256"},{"name":"penaltyCap","type":"uint256","internalType":"uint256"}],"stateMutability":"view"},{"type":"function","name":"openPosition","inputs":[{"name":"marketId","type":"bytes32","internalType":"bytes32"},{"name":"isLong","type":"bool","internalType":"bool"},{"name":"size","type":"uint128","internalType":"uint128"},{"name":"priceLimitX18","type":"uint256","internalType":"uint256"}],"outputs":[],"stateMutability":"nonpayable"},{"type":"function","name":"pauseMarket","inputs":[{"name":"marketId","type":"bytes32","internalType":"bytes32"},{"name":"paused","type":"bool","internalType":"bool"}],"outputs":[],"stateMutability":"nonpayable"},{"type":"function","name":"positions","inputs":[{"name":"user","type":"address","internalType":"address"},{"name":"marketId","type":"bytes32","internalType":"bytes32"}],"outputs":[{"name":"size","type":"int256","internalType":"int256"},{"name":"margin","type":"uint256","internalType":"uint256"},{"name":"entryPriceX18","type":"uint256","internalType":"uint256"},{"name":"lastFundingIndex","type":"int256","internalType":"int256"},{"name":"realizedPnL","type":"int256","internalType":"int256"}],"stateMutability":"view"},{"type":"function","name":"proxiableUUID","inputs":[],"outputs":[{"name":"","type":"bytes32","internalType":"bytes32"}],"stateMutability":"view"},{"type":"function","name":"removeMargin","inputs":[{"name":"marketId","type":"bytes32","internalType":"bytes32"},{"name":"amount","type":"uint256","internalType":"uint256"}],"outputs":[],"stateMutability":"nonpayable"},{"type":"function","name":"removeWhitelistedLiquidator","inputs":[{"name":"liquidator","type":"address","internalType":"address"}],"outputs":[],"stateMutability":"nonpayable"},{"type":"function","name":"renounceRole","inputs":[{"name":"role","type":"bytes32","internalType":"bytes32"},{"name":"callerConfirmation","type":"address","internalType":"address"}],"outputs":[],"stateMutability":"nonpayable"},{"type":"function","name":"revokeRole","inputs":[{"name":"role","type":"bytes32","internalType":"bytes32"},{"name":"account","type":"address","internalType":"address"}],"outputs":[],"stateMutability":"nonpayable"},{"type":"function","name":"setRiskParams","inputs":[{"name":"marketId","type":"bytes32","internalType":"bytes32"},{"name":"imrBps","type":"uint256","internalType":"uint256"},{"name":"mmrBps","type":"uint256","internalType":"uint256"},{"name":"liquidationPenaltyBps","type":"uint256","internalType":"uint256"},{"name":"penaltyCap","type":"uint256","internalType":"uint256"}],"outputs":[],"stateMutability":"nonpayable"},{"type":"function","name":"setWhitelistedLiquidator","inputs":[{"name":"liquidator","type":"address","internalType":"address"},{"name":"isWhitelisted","type":"bool","internalType":"bool"}],"outputs":[],"stateMutability":"nonpayable"},{"type":"function","name":"settleFunding","inputs":[{"name":"marketId","type":"bytes32","internalType":"bytes32"},{"name":"account","type":"address","internalType":"address"}],"outputs":[],"stateMutability":"nonpayable"},{"type":"function","name":"supportsInterface","inputs":[{"name":"interfaceId","type":"bytes4","internalType":"bytes4"}],"outputs":[{"name":"","type":"bool","internalType":"bool"}],"stateMutability":"view"},{"type":"function","name":"upgradeToAndCall","inputs":[{"name":"newImplementation","type":"address","internalType":"address"},{"name":"data","type":"bytes","internalType":"bytes"}],"outputs":[],"stateMutability":"payable"},{"type":"function","name":"vault","inputs":[],"outputs":[{"name":"","type":"address","internalType":"address"}],"stateMutability":"view"},{"type":"function","name":"withdraw","inputs":[{"name":"token","type":"address","internalType":"address"},{"name":"amount","type":"uint256","internalType":"uint256"}],"outputs":[],"stateMutability":"nonpayable"},{"type":"event","name":"FundingSettled","inputs":[{"name":"marketId","type":"bytes32","indexed":true,"internalType":"bytes32"},{"name":"account","type":"address","indexed":true,"internalType":"address"},{"name":"fundingPayment","type":"int256","indexed":false,"internalType":"int256"}],"anonymous":false},{"type":"event","name":"Initialized","inputs":[{"name":"version","type":"uint64","indexed":false,"internalType":"uint64"}],"anonymous":false},{"type":"event","name":"LiquidationExecuted","inputs":[{"name":"marketId","type":"bytes32","indexed":true,"internalType":"bytes32"},{"name":"liquidator","type":"address","indexed":true,"internalType":"address"},{"name":"account","type":"address","indexed":true,"internalType":"address"},{"name":"size","type":"uint128","indexed":false,"internalType":"uint128"},{"name":"notional","type":"uint256","indexed":false,"internalType":"uint256"},{"name":"penalty","type":"uint256","indexed":false,"internalType":"uint256"},{"name":"liquidatorReward","type":"uint256","indexed":false,"internalType":"uint256"},{"name":"protocolFee","type":"uint256","indexed":false,"internalType":"uint256"},{"name":"insurancePayout","type":"uint256","indexed":false,"internalType":"uint256"}],"anonymous":false},{"type":"event","name":"LiquidatorWhitelistUpdated","inputs":[{"name":"liquidator","type":"address","indexed":true,"internalType":"address"},{"name":"isWhitelisted","type":"bool","indexed":false,"internalType":"bool"}],"anonymous":false},{"type":"event","name":"MarginAdded","inputs":[{"name":"user","type":"address","indexed":true,"internalType":"address"},{"name":"marketId","type":"bytes32","indexed":true,"internalType":"bytes32"},{"name":"amount","type":"uint256","indexed":false,"internalType":"uint256"}],"anonymous":false},{"type":"event","name":"MarginRemoved","inputs":[{"name":"user","type":"address","indexed":true,"internalType":"address"},{"name":"marketId","type":"bytes32","indexed":true,"internalType":"bytes32"},{"name":"amount","type":"uint256","indexed":false,"internalType":"uint256"}],"anonymous":false},{"type":"event","name":"MarketPaused","inputs":[{"name":"marketId","type":"bytes32","indexed":true,"internalType":"bytes32"},{"name":"isPaused","type":"bool","indexed":false,"internalType":"bool"}],"anonymous":false},{"type":"event","name":"RiskParamsSet","inputs":[{"name":"marketId","type":"bytes32","indexed":true,"internalType":"bytes32"},{"name":"imrBps","type":"uint256","indexed":false,"internalType":"uint256"},{"name":"mmrBps","type":"uint256","indexed":false,"internalType":"uint256"},{"name":"liquidationPenaltyBps","type":"uint256","indexed":false,"internalType":"uint256"},{"name":"penaltyCap","type":"uint256","indexed":false,"internalType":"uint256"}],"anonymous":false},{"type":"event","name":"RoleAdminChanged","inputs":[{"name":"role","type":"bytes32","indexed":true,"internalType":"bytes32"},{"name":"previousAdminRole","type":"bytes32","indexed":true,"internalType":"bytes32"},{"name":"newAdminRole","type":"bytes32","indexed":true,"internalType":"bytes32"}],"anonymous":false},{"type":"event","name":"RoleGranted","inputs":[{"name":"role","type":"bytes32","indexed":true,"internalType":"bytes32"},{"name":"account","type":"address","indexed":true,"internalType":"address"},{"name":"sender","type":"address","indexed":true,"internalType":"address"}],"anonymous":false},{"type":"event","name":"RoleRevoked","inputs":[{"name":"role","type":"bytes32","indexed":true,"internalType":"bytes32"},{"name":"account","type":"address","indexed":true,"internalType":"address"},{"name":"sender","type":"address","indexed":true,"internalType":"address"}],"anonymous":false},{"type":"event","name":"Upgraded","inputs":[{"name":"implementation","type":"address","indexed":true,"internalType":"address"}],"anonymous":false},{"type":"event","name":"collateralDeposited","inputs":[{"name":"user","type":"address","indexed":true,"internalType":"address"},{"name":"token","type":"address","indexed":true,"internalType":"address"},{"name":"amount","type":"uint256","indexed":false,"internalType":"uint256"}],"anonymous":false},{"type":"event","name":"collateralWithdrawn","inputs":[{"name":"user","type":"address","indexed":true,"internalType":"address"},{"name":"token","type":"address","indexed":true,"internalType":"address"},{"name":"amount","type":"uint256","indexed":false,"internalType":"uint256"}],"anonymous":false},{"type":"error","name":"AccessControlBadConfirmation","inputs":[]},{"type":"error","name":"AccessControlUnauthorizedAccount","inputs":[{"name":"account","type":"address","internalType":"address"},{"name":"neededRole","type":"bytes32","internalType":"bytes32"}]},{"type":"error","name":"AddressEmptyCode","inputs":[{"name":"target","type":"address","internalType":"address"}]},{"type":"error","name":"ERC1967InvalidImplementation","inputs":[{"name":"implementation","type":"address","internalType":"address"}]},{"type":"error","name":"ERC1967NonPayable","inputs":[]},{"type":"error","name":"FailedCall","inputs":[]},{"type":"error","name":"InvalidInitialization","inputs":[]},{"type":"error","name":"NotInitializing","inputs":[]},{"type":"error","name":"UUPSUnauthorizedCallContext","inputs":[]},{"type":"error","name":"UUPSUnsupportedProxiableUUID","inputs":[{"name":"slot","type":"bytes32","internalType":"bytes32"}]}],"bytecode":{"object":"0x60a080604052346100c257306080525f516020613bc95f395f51905f525460ff8160401c166100b3576002600160401b03196001600160401b03821601610060575b604051613b0290816100c7823960805181818161110301526117e20152f35b6001600160401b0319166001600160401b039081175f516020613bc95f395f51905f525581527fc7f505b2f371ae2175ee4913f4499e1f2633a7b5936321eed1cdaeb6115181d290602090a15f80610041565b63f92ee8a960e01b5f5260045ffd5b5f80fdfe6080806040526004361015610012575f80fd5b5f905f3560e01c90816301ffc9a7146120b8575080630fa8f51614611ff557806313fa529214611f0857806321e49bfd14611e6e578063248a9ca314611e435780632e16fd6b14611e115780632f2ff15d14611dd357806334176a6d14611d6257806336568abe14611d1d5780633811ff3114611ce4578063468e000014611aeb57806347e7ef24146119c75780634f1ef28614611766578063512159db1461115757806352d1902d146110f05780635ae809511461104757806362e6b34c1461102257806388f59ddc14610ffa57806391d1485414610fb157806397709b5d14610e7e5780639e0a737814610d5a578063a217fddf14610d3e578063ad3cb1cc14610ce2578063c0c53b8b14610a6c578063c7d1933714610a2d578063d22460bd146109e0578063d547741f14610999578063d5528f5d146107b0578063ea181b6214610788578063ecb96fe61461075f578063f2d7e950146106d7578063f3fef3a31461048c578063fbfa77cf14610463578063fd715d17146104335763fe2b52381461019f575f80fd5b34610430576060366003190112610430576024356004356001600160801b03821680830361042e57604435926101d53384612475565b60025460405163c3c95c7b60e01b8152600481018590529061012090829060249082906001600160a01b03165afa9081156104235786916103f4575b508051610228906001600160a01b03161515612394565b6102338315156128b5565b33865260046020526040862084875260205260408620549283156103c1578684139384156103b257905b1161037957516001600160a01b031691156103055760405162e3079f60e81b81526001600160801b03909116600482015260248101939093526060908390818681604481015b03925af180156102fa576102c492849085926102c7575b5090915b33612e42565b80f35b90506102eb915060603d6060116102f3575b6102e38183612193565b8101906123e8565b9190916102ba565b503d6102d9565b6040513d85823e3d90fd5b604051633396b97160e01b81526001600160801b03909116600482015260248101939093526060908390818681604481015b03925af180156102fa576102c49284908592610356575b5090916102be565b9050610371915060603d6060116102f3576102e38183612193565b91909161034e565b60405162461bcd60e51b81526020600482015260116024820152702932b23ab1b2901f103837b9b4ba34b7b760791b6044820152606490fd5b6103bb906123d8565b9061025d565b60405162461bcd60e51b815260206004820152600b60248201526a2737903837b9b4ba34b7b760a91b6044820152606490fd5b61041691506101203d811161041c575b61040e8183612193565b8101906122e5565b5f610211565b503d610404565b6040513d88823e3d90fd5b835b80fd5b503461043057604036600319011261043057602061045b61045261210b565b602435906128f4565b604051908152f35b50346104305780600319360112610430576001546040516001600160a01b039091168152602090f35b5034610430576040366003190112610430576104a661210b565b60243590811561068057600154604051637456d92360e01b815233600482015284916001600160a01b031690602081602481855afa9081156102fa57839161064b575b5033835260056020908152604080852054905163448116eb60e11b81526001600160a01b03871660048201526024810188905292909183604481875afa9283156106405785936105ff575b5061054a929161054391612421565b1015612869565b803b156105fb5760405163723301f360e01b815233600482018190526001600160a01b03851660248301526044820186905260648201529082908290608490829084905af180156105f0576105d7575b50506040519182526001600160a01b03169033907f3a76657468611c9b578c8d0dbec6bf96ec3ea2fadf7ddae00f274a7375abd7c190602090a380f35b816105e191612193565b6105ec57825f61059a565b8280fd5b6040513d84823e3d90fd5b5080fd5b94509091506020843d602011610638575b8161061d60209383612193565b810103126106345792518693909190610543610534565b5f80fd5b3d9150610610565b6040513d87823e3d90fd5b9250506020823d602011610678575b8161066760209383612193565b81010312610634578491515f6104e9565b3d915061065a565b60405162461bcd60e51b815260206004820152602960248201527f576974686472617720616d6f756e74206d7573742062652067726561746572206044820152687468616e207a65726f60b81b6064820152608490fd5b5034610430576020366003190112610430576106f161210b565b81805260208281526040808420335f90815292529020546107149060ff166121fd565b6001600160a01b0316808252600360209081526040808420805460ff19169055518381527f071d00f142384ac91b11e0e017527489fbe27aed967757534719370cf2d3b8ee9190a280f35b50346104305780600319360112610430576002546040516001600160a01b039091168152602090f35b503461043057604036600319011261043057602061045b6107a761210b565b60243590612b0c565b5034610430576080366003190112610430576004356107cd612137565b906107d66121d1565b91606435926107e53384612475565b60025460405163170da40760e21b8152600481018590526001600160a01b0390911690602081602481855afa90811561098e578791610950575b5015610917576101206024916040519283809263c3c95c7b60e01b82528860048301525afa9081156104235786916108f8575b508051610869906001600160a01b03161515612394565b61087d6001600160801b03831615156128b5565b516001600160a01b031691156108c357604051633396b97160e01b81526001600160801b03909116600482015260248101939093526060908390818681604481016102a3565b60405162e3079f60e81b81526001600160801b0390911660048201526024810193909352606090839081868160448101610337565b61091191506101203d811161041c5761040e8183612193565b5f610852565b60405162461bcd60e51b81526020600482015260116024820152704d61726b6574206e6f742061637469766560781b6044820152606490fd5b90506020813d602011610986575b8161096b60209383612193565b810103126109825761097c906122d8565b5f61081f565b8680fd5b3d915061095e565b6040513d89823e3d90fd5b5034610430576040366003190112610430576109dc6004356109b9612121565b906109d76109d2825f525f602052600160405f20015490565b612c46565b612daf565b5080f35b503461043057602036600319011261043057600435815260066020908152604091829020805460018201546002830154600390930154855192835293820152928301526060820152608090f35b50346104305760203660031901126104305760209060ff906040906001600160a01b03610a5861210b565b168152600384522054166040519015158152f35b503461043057606036600319011261043057610a8661210b565b610a8e612121565b6044356001600160a01b038116808203610cde575f516020613aad5f395f51905f52549360ff8560401c16159467ffffffffffffffff811680159081610cd6575b6001149081610ccc575b159081610cc3575b50610cb45767ffffffffffffffff1981166001175f516020613aad5f395f51905f525585610c88575b506001600160a01b0316928315610c4b576001600160a01b0316908115610c065715610bc957610b69926bffffffffffffffffffffffff60a01b60015416176001556bffffffffffffffffffffffff60a01b6002541617600255612c7e565b50610b715780f35b68ff0000000000000000195f516020613aad5f395f51905f5254165f516020613aad5f395f51905f52557fc7f505b2f371ae2175ee4913f4499e1f2633a7b5936321eed1cdaeb6115181d2602060405160018152a180f35b60405162461bcd60e51b8152602060048201526015602482015274496e76616c69642061646d696e206164647265737360581b6044820152606490fd5b60405162461bcd60e51b815260206004820152601f60248201527f496e76616c6964206d61726b65742072656769737472792061646472657373006044820152606490fd5b60405162461bcd60e51b8152602060048201526015602482015274496e76616c6964207661756c74206164647265737360581b6044820152606490fd5b68ffffffffffffffffff191668010000000000000001175f516020613aad5f395f51905f52555f610b0a565b63f92ee8a960e01b8752600487fd5b9050155f610ae1565b303b159150610ad9565b879150610acf565b8480fd5b503461043057806003193601126104305760408051610d018282612193565b6005815260208101640352e302e360dc1b81528251938492602084525180928160208601528585015e828201840152601f01601f19168101030190f35b5034610430578060031936011261043057602090604051908152f35b503461043057610d69366121e7565b610d7481151561281d565b600154604051637456d92360e01b815233600482015290602090829060249082906001600160a01b03165afa908115610e73578491610e3f575b50610dc9610dd1913386526005602052604086205490612421565b821115612869565b33835260046020526040832082845260205260016040842001610df5828254612468565b9055338352600560205260408320610e0e828254612468565b90556040519081527f57ab4c4d40a32ad167254ad966d3295c6b75a4b4be6f5b76b6ac9df41c29839e60203392a380f35b90506020813d602011610e6b575b81610e5a60209383612193565b810103126106345751610dc9610dae565b3d9150610e4d565b6040513d86823e3d90fd5b503461043057610e8d366121e7565b610e9881151561281d565b338352600460205260408320828452602052600160408420018054828110610f6c57610ec48433612b0c565b610ece8483612421565b10610f275782610edd91612421565b9055338352600560205260408320610ef6828254612421565b90556040519081527f4c88d632ed7d743d1ae51add8d5c8da1cde21c1ef7af661e8c6813cb434ff11860203392a380f35b60405162461bcd60e51b815260206004820152601e60248201527f506f736974696f6e20776f756c64206265206c6971756964617461626c6500006044820152606490fd5b60405162461bcd60e51b815260206004820152601f60248201527f496e73756666696369656e74206d617267696e20696e20706f736974696f6e006044820152606490fd5b5034610430576040366003190112610430576040610fcd612121565b91600435815280602052209060018060a01b03165f52602052602060ff60405f2054166040519015158152f35b503461043057604036600319011261043057602061045b61101961210b565b60243590612706565b5034610430576040366003190112610430576102c461103f612121565b600435612475565b50346104305760203660031901126104305760249061106461210b565b600154604051637456d92360e01b81526001600160a01b0392831660048201819052909490926020928692918391165afa9283156105f05782936110bb575b602061045b856040868681526005855220549061242e565b92506020833d6020116110e8575b816110d660209383612193565b810103126106345791519160406110a3565b3d91506110c9565b50346104305780600319360112610430577f00000000000000000000000000000000000000000000000000000000000000006001600160a01b031630036111485760206040515f516020613a8d5f395f51905f528152f35b63703e46dd60e11b8152600490fd5b50346104305760603660031901126104305761117161210b565b60243561117c6121d1565b90338452600360205260ff6040852054161561171257604051632e16fd6b60e01b81526001600160a01b038416600482015260248101829052602081604481305afa9081156106405785916116d8575b50156116a0576001600160a01b038316808552600460209081526040808720848852909152852080549194868313926001600160801b0390841561169157955b16948515159081611686575b501561165257866024938161010060405161123281612176565b8281528260208201528260408201528260608201528260808201528260a08201528260c08201528260e0820152015261012060018060a01b03600254166040519687809263c3c95c7b60e01b82528a60048301525afa9485156105f057829561162e575b508451606091906112b1906001600160a01b03161515612394565b85516001600160a01b031690156115d15760446040518094819362e3079f60e81b83528b60048401528160248401525af180156115a3576112fe9189908a926115ae575b505b8684612e42565b82516040516330204b1960e11b815290602090829060049082906001600160a01b03165afa80156115a357889061156f575b61133b91508661333e565b8488526006602052611354600260408a200154826133f6565b908589526006602052600360408a2001548211611558575b8192899460018060a01b0360808801511661153b575b6001018054908185116115355784915b826114e4575b50505060e08601518a96906113b99086906001600160a01b0316338561353c565b809150611425575b508580611414575b505050604051968752602087015260408601526060850152608084015260a08301527ff5cd1d991fe77f9f0965c16fe0105433237d658f7d34161853e4f229ff875d7c60c03393a480f35b61141d926137f0565b5f80856113c9565b60a08201805192985090916001600160a01b0316156114a657518b906001600160a01b0316803b156105fb5760405163117de2fd60e01b8152336004820152602481018490529082908290604490829084905af180156105f05761148d575b5050955f6113c1565b8161149791612193565b6114a2578a5f611484565b8a80fd5b60405162461bcd60e51b8152602060048201526016602482015275496e737572616e63652066756e64206d697373696e6760501b6044820152606490fd5b826114ee91612421565b9055898b52600560205260408b2054811161152e57611519908a8c52600560205260408c2054612421565b898b52600560205260408b20555f8080611398565b5089611519565b81611392565b935093508160011c9360016115508685612421565b949050611382565b85895260066020526040892060030154915061136c565b506020813d60201161159b575b8161158960209383612193565b810103126106345761133b9051611330565b3d915061157c565b6040513d8a823e3d90fd5b90506115c9915060603d6060116102f3576102e38183612193565b9190916112f5565b604460405180948193633396b97160e01b83528b60048401528160248401525af180156115a3576112fe9189908a9261160b575b506112f7565b9050611626915060603d6060116102f3576102e38183612193565b919091611605565b606091955061164b906101203d811161041c5761040e8183612193565b9490611296565b60405162461bcd60e51b815260206004820152600c60248201526b496e76616c69642073697a6560a01b6044820152606490fd5b90508511155f611218565b61169a906123d8565b9561120c565b60405162461bcd60e51b815260206004820152601060248201526f4e6f74206c6971756964617461626c6560801b6044820152606490fd5b90506020813d60201161170a575b816116f360209383612193565b81010312610cde57611704906122d8565b5f6111cc565b3d91506116e6565b60405162461bcd60e51b815260206004820152602660248201527f43616c6c6572206973206e6f7420612077686974656c6973746564206c69717560448201526534b230ba37b960d11b6064820152608490fd5b5060403660031901126104305761177b61210b565b6024359067ffffffffffffffff82116105ec57366023830112156105ec57816004013590836117a9836121b5565b936117b76040519586612193565b838552602085019336602482840101116105ec57806024602093018637850101526001600160a01b037f0000000000000000000000000000000000000000000000000000000000000000163081149081156119a5575b506119965783805260208481526040808620335f90815292529020546118359060ff166121fd565b6040516352d1902d60e01b81526001600160a01b0382169390602081600481885afa869181611962575b5061187857634c9c8ce360e01b86526004859052602486fd5b93845f516020613a8d5f395f51905f528796036119505750823b1561193e575f516020613a8d5f395f51905f5280546001600160a01b031916821790558491907fbc7cd75a20ee27fd9adebab32041f755214dbc6bffa90cc0225b39da2e5c2d3b8380a2805115611923576109dc9382915190845af43d1561191b573d916118ff836121b5565b9261190d6040519485612193565b83523d85602085013e613a2e565b606091613a2e565b505050503461192f5780f35b63b398979f60e01b8152600490fd5b634c9c8ce360e01b8552600452602484fd5b632a87526960e21b8652600452602485fd5b9091506020813d60201161198e575b8161197e60209383612193565b810103126109825751905f61185f565b3d9150611971565b63703e46dd60e11b8452600484fd5b5f516020613a8d5f395f51905f52546001600160a01b0316141590505f61180d565b5034610430576040366003190112610430576119e161210b565b6024358015611a9557600154604051633d14d1b760e21b81526001600160a01b039384166004820181905260248201849052336044830152939091602091839160649183918991165af18015610e7357611a66575b506040519081527fe4c032bd651f378a59936633a0f92b7497fd3577f65c95dc20a01acface334cc60203392a380f35b6020813d602011611a8d575b81611a7f60209383612193565b810103126106345751611a36565b3d9150611a72565b60405162461bcd60e51b815260206004820152602860248201527f4465706f73697420616d6f756e74206d7573742062652067726561746572207460448201526768616e207a65726f60c01b6064820152608490fd5b50346104305760a0366003190112610430576004356024356044359060643560843590858052856020526040862060018060a01b0333165f52602052611b3760ff60405f2054166121fd565b60025460405163c3c95c7b60e01b8152600481018790529061012090829060249082906001600160a01b03165afa801561098e57611b88918891611cc5575b50516001600160a01b03161515612394565b838310611c8b578315611c54576040516080810181811067ffffffffffffffff821117611c4057917fab89b7189222424f7474f0f10fedb16bd41c97e3baf664fb01b8b15a319ce08d95949391611c3a936040528481526003602082018781526040830184815260608401918683528b8d52600660205260408d209451855551600185015551600284015551910155604051948594859094939260609260808301968352602083015260408201520152565b0390a280f35b634e487b7160e01b88526041600452602488fd5b60405162461bcd60e51b815260206004820152600f60248201526e04d4d52206d757374206265203e203608c1b6044820152606490fd5b60405162461bcd60e51b815260206004820152601260248201527124a6a91036bab9ba103132901f1e9026a6a960711b6044820152606490fd5b611cde91506101203d811161041c5761040e8183612193565b5f611b76565b5034610430576020366003190112610430576020906040906001600160a01b03611d0c61210b565b168152600583522054604051908152f35b503461043057604036600319011261043057611d37612121565b336001600160a01b03821603611d53576109dc90600435612daf565b63334bd91960e11b8252600482fd5b50346104305760403660031901126104305760a0906040906001600160a01b03611d8a61210b565b1681526004602052818120602435825260205220805490600181015490600281015460046003830154920154926040519485526020850152604084015260608301526080820152f35b5034610430576040366003190112610430576109dc600435611df3612121565b90611e0c6109d2825f525f602052600160405f20015490565b612d2d565b5034610430576040366003190112610430576020611e39611e3061210b565b60243590612271565b6040519015158152f35b503461043057602036600319011261043057602061045b6004355f525f602052600160405f20015490565b503461043057604036600319011261043057611e8861210b565b7f071d00f142384ac91b11e0e017527489fbe27aed967757534719370cf2d3b8ee6020611eb3612137565b8480528482526040808620335f9081529084522054909390611ed79060ff166121fd565b6001600160a01b0316808552600382526040808620805460ff191695151560ff81169690961790555193845292a280f35b503461063457604036600319011261063457600435611f25612137565b335f9081527fad3228b676f7d3cd4284a5443f17f1962b36e491b30a40b2405849e597ba5fb56020526040902054611f5f9060ff166121fd565b6002546001600160a01b031690813b15610634575f80916044604051809481936309fd294960e11b83528860048401521515968760248401525af18015611fea57611fd4575b5060207f05520bfd4bb1667474a37714b39c417a849997967943d706d4139a6308b7d93391604051908152a280f35b611fe19193505f90612193565b5f916020611fa5565b6040513d5f823e3d90fd5b346106345760403660031901126106345761200e61210b565b5f608060405161201d81612146565b828152826020820152826040820152826060820152015260018060a01b03165f52600460205260405f206024355f5260205260a060405f2060405161206181612146565b81549182825260018101546020830190815260028201549060408401918252608060046003850154946060870195865201549401938452604051948552516020850152516040840152516060830152516080820152f35b34610634576020366003190112610634576004359063ffffffff60e01b821680920361063457602091637965db0b60e01b81149081156120fa575b5015158152f35b6301ffc9a760e01b149050836120f3565b600435906001600160a01b038216820361063457565b602435906001600160a01b038216820361063457565b60243590811515820361063457565b60a0810190811067ffffffffffffffff82111761216257604052565b634e487b7160e01b5f52604160045260245ffd5b610120810190811067ffffffffffffffff82111761216257604052565b90601f8019910116810190811067ffffffffffffffff82111761216257604052565b67ffffffffffffffff811161216257601f01601f191660200190565b604435906001600160801b038216820361063457565b6040906003190112610634576004359060243590565b1561220457565b60405162461bcd60e51b815260206004820152601660248201527521b0b63632b91034b9903737ba1030b71030b236b4b760511b6044820152606490fd5b9190915f838201938412911290801582169115161761225d57565b634e487b7160e01b5f52601160045260245ffd5b9060018060a01b0382165f52600460205260405f20815f5260205260405f20908154156122bd576122b36122b99260016122ab84876129ad565b910154612242565b92612b0c565b1390565b5050505f90565b51906001600160a01b038216820361063457565b5190811515820361063457565b908161012091031261063457604051906122fe82612176565b612307816122c4565b825260208101519061ffff821682036106345761010091602084015261232f604082016122d8565b6040840152612340606082016122c4565b6060840152612351608082016122c4565b608084015261236260a082016122c4565b60a084015261237360c082016122c4565b60c084015261238460e082016122c4565b60e0840152015161010082015290565b1561239b57565b60405162461bcd60e51b815260206004820152601560248201527413585c9ad95d08191bd95cc81b9bdd08195e1a5cdd605a1b6044820152606490fd5b600160ff1b811461225d575f0390565b90816060910312610634578051916040602083015192015190565b811561240d570490565b634e487b7160e01b5f52601260045260245ffd5b9190820391821161225d57565b81810392915f13801582851316918412161761225d57565b81810292915f8212600160ff1b82141661225d57818405149015171561225d57565b9190820180921161225d57565b60025460405163c3c95c7b60e01b8152600481018390525f9161012090829060249082906001600160a01b03165afa908115611fea575f916126e7575b5080516124c9906001600160a01b03161515612394565b516001600160a01b031691823b15610634576040516315f800b960e11b8152935f8560048183885af1948515611fea576004956126d2575b5060018060a01b0316918281528460205260408120828252602052602060408220946040519687809263388c45ad60e11b82525afa9485156126c5578195612691575b50835490811561268757600385019461255e86548861242e565b918261256e575b50505050505055565b670de0b6b3a76400006125a47feb7a4729d6bbf4946c56b18f3dc76fe7bba0d40422fc8596a49a02084a53b58595602095612446565b0591818313156125ea57906001604092016125c0848254612468565b905586815260058452206125d5828254612468565b90555b604051908152a35f8080808080612565565b8183126125f9575b50506125d8565b6001612604846123d8565b9101805490919080821061265c57505086825260058452604082205481548091115f146126555761264090888452600586526040842054612421565b878352600585526040832055555b5f806125f2565b5081612640565b926126809261266e8360409496612421565b90558881526005865220918254612421565b905561264e565b5050505060030155565b9094506020813d6020116126bd575b816126ad60209383612193565b81010312610cde5751935f612544565b3d91506126a0565b50604051903d90823e3d90fd5b6126df9193505f90612193565b5f915f612501565b61270091506101203d811161041c5761040e8183612193565b5f6124b2565b60018060a01b03165f52600460205260405f20815f5260205260405f20549081156127f85760025460405163c3c95c7b60e01b8152600481019290925261012090829060249082906001600160a01b03165afa908115611fea575f916127fe575b50516001600160a01b03169081156127f8576020600492604051938480926330204b1960e11b82525afa908115611fea575f916127c2575b6127b192505f8113156127b45761333e565b90565b6127bd906123d8565b61333e565b90506020823d6020116127f0575b816127dd60209383612193565b81010312610634576127b191519061279f565b3d91506127d0565b50505f90565b61281791506101203d811161041c5761040e8183612193565b5f612767565b1561282457565b60405162461bcd60e51b815260206004820152601f60248201527f416d6f756e742073686f756c642062652067726561746572207468616e2030006044820152606490fd5b1561287057565b60405162461bcd60e51b815260206004820152601e60248201527f496e73756666696369656e7420617661696c61626c652062616c616e636500006044820152606490fd5b156128bc57565b60405162461bcd60e51b815260206004820152601060248201526f053697a65206d757374206265203e20360841b6044820152606490fd5b9060018060a01b0382165f52600460205260405f20815f5260205260405f20918254156129a55760405163223d677760e21b81526001600160a01b039190911660048201526024810191909152602081604481305afa908115611fea575f91612973575b50801561296c5760016127b192015461345e565b50505f1990565b90506020813d60201161299d575b8161298e60209383612193565b8101031261063457515f612958565b3d9150612981565b5050505f1990565b60018060a01b03165f52600460205260405f20815f5260205260405f2080549182158015612b00575b6122bd5760025460405163c3c95c7b60e01b8152600481019290925261012090829060249082906001600160a01b03165afa908115611fea575f91612ae1575b50516001600160a01b03169182156122bd576020600493604051948580926330204b1960e11b82525afa918215611fea575f92612aa5575b670de0b6b3a764000093505f8213918215612a9657915b15612a8557612a81926002612a7c9201549061242e565b612446565b0590565b612a81926002612a7c92015461242e565b612a9f906123d8565b91612a65565b91506020833d602011612ad9575b81612ac060209383612193565b8101031261063457670de0b6b3a7640000925191612a4e565b3d9150612ab3565b612afa91506101203d811161041c5761040e8183612193565b5f612a16565b506002820154156129d6565b60018060a01b03165f52600460205260405f20815f5260205260405f205480156127f85760025460405163c3c95c7b60e01b815260048101849052929061012090849060249082906001600160a01b03165afa928315611fea575f93612c25575b508251612b84906001600160a01b03161515612394565b5f52600660205260046020600160405f200154925f81135f14612c1657935b516040516330204b1960e11b815292839182906001600160a01b03165afa908115611fea575f91612be2575b50612bdd906127b19361333e565b6133f6565b90506020813d602011612c0e575b81612bfd60209383612193565b8101031261063457516127b1612bcf565b3d9150612bf0565b612c1f906123d8565b93612ba3565b612c3f9193506101203d811161041c5761040e8183612193565b915f612b6d565b5f8181526020818152604080832033845290915290205460ff1615612c685750565b63e2517d3f60e01b5f523360045260245260445ffd5b6001600160a01b0381165f9081527fad3228b676f7d3cd4284a5443f17f1962b36e491b30a40b2405849e597ba5fb5602052604090205460ff16612d28576001600160a01b03165f8181527fad3228b676f7d3cd4284a5443f17f1962b36e491b30a40b2405849e597ba5fb560205260408120805460ff191660011790553391907f2f8788117e7eff1d82e926ec794901d17c78024a50270940304540a733656f0d8180a4600190565b505f90565b5f818152602081815260408083206001600160a01b038616845290915290205460ff166127f8575f818152602081815260408083206001600160a01b0395909516808452949091528120805460ff19166001179055339291907f2f8788117e7eff1d82e926ec794901d17c78024a50270940304540a733656f0d9080a4600190565b5f818152602081815260408083206001600160a01b038616845290915290205460ff16156127f8575f818152602081815260408083206001600160a01b0395909516808452949091528120805460ff19169055339291907ff6391f5c32d9c69d2a47ea670b442974b53935d1edc7fd64eb21e047a839171b9080a4600190565b8181029291811591840414171561225d57565b91909160018060a01b03811691825f52600460205260405f20845f5260205260405f2094855490612e738383612242565b5f841292908361332d57849384935b8a5f85128061331e5785935b5f8612918261330a57612eab87998a965b5f81126132fc5761345e565b9a5f98806131d157505050505060020187905550505b885560048801612ed2828254612242565b90555f81131561316b5760018801612eeb828254612468565b9055855f526005602052612f0460405f20918254612468565b90555b80613045575b5080612f1c575b505050505050565b60025460405163c3c95c7b60e01b8152600481019690965261012090869060249082906001600160a01b03165afa948515611fea575f95613024575b50602085019161ffff835116612f6f575b50612f14565b612f789161333e565b80612f84575b80612f69565b61ffff612f93925116906133f6565b9384612fa0575b80612f7e565b600101918254948581115f1461301e575084925b83612fc0575b50612f9a565b612fcd8461300c97612421565b90555f81815260056020526040902054831161301757805f526005602052612ff98360405f2054612421565b905b5f52600560205260405f205561391b565b5f8080808080612fba565b5f90612ffb565b92612fb4565b61303e9195506101203d811161041c5761040e8183612193565b935f612f58565b855f52600660205260405f2054602461012060018060a01b03600254166040519283809263c3c95c7b60e01b82528c60048301525afa908115611fea576004916020915f9161314c575b50516040516330204b1960e11b815292839182906001600160a01b03165afa908115611fea575f91613118575b50612bdd906130ca9361333e565b6001870154106130da575f612f0d565b60405162461bcd60e51b8152602060048201526016602482015275494d522062726561636820616674657220747261646560501b6044820152606490fd5b90506020813d602011613144575b8161313360209383612193565b8101031261063457516130ca6130bc565b3d9150613126565b61316591506101203d811161041c5761040e8183612193565b5f61308f565b613174906123d8565b600188018054808311156131a757505f91508054878352600560205261319f60408420918254612421565b905555612f07565b826131b191612421565b9055855f5260056020526131ca60405f20918254612421565b9055612f07565b5f83911393849283956132f0575b5082156132d7575b5050156132255750505090613218613208600261321d940194855490612e2f565b6132128a8a612e2f565b90612468565b612403565b90555b612ec1565b9196509390925090508b8188116132c857670de0b6b3a76400009150875b8985156132b05750612a7c600261325c9301548b61242e565b05935b85613272575050505f60028a0155612ec1565b826132a8575b508115613291575b5015613220578460028a0155612ec1565b90508061329f575b5f613280565b505f8113613299565b91505f613278565b612a7c9060026132c194015461242e565b059361325f565b670de0b6b3a764000091613243565b909150816132e8575b50815f6131e7565b90505f6132e0565b5f91935013915f6131df565b613305906123d8565b61345e565b612eab613316886123d8565b998a96612e9f565b613327866123d8565b93612e8e565b613336856123d8565b938493612e82565b5f19828209828202918280831092039180830392146133e55781670de0b6b3a764000011156133a7577faccb18165bd6fe31ae1cf318dc5b51eee0e1ba569b88cd74c1773b91fac1066993670de0b6b3a7640000910990828211900360ee1b910360121c170290565b60405162461bcd60e51b815260206004820152601660248201527543616c63756c6174696f6e733a206f766572666c6f7760501b6044820152606490fd5b5050670de0b6b3a764000091500490565b5f1982820982820291828083109203918083039214613453578161271011156133a7577fbc01a36e2eb1c432ca57a786c226809d495182a9930be0ded288ce703afb7e9193612710910990828211900360fc1b910360041c170290565b505061271091500490565b5f19670de0b6b3a7640000820991670de0b6b3a76400008202918280851094039380850394146134ef57838211156133a757670de0b6b3a7640000829109600182190182168092046002816003021880820260020302808202600203028082026002030280820260020302808202600203028091026002030293600183805f03040190848311900302920304170290565b508091925015613502576127b191612403565b60405162461bcd60e51b8152602060048201526012602482015271043616c63756c6174696f6e733a20646976360741b6044820152606490fd5b919392801561364c57600154604051633de222bb60e21b81526001600160a01b0394851660048201819052968516602482018190529490911695906020816044818a5afa908115611fea575f9161361a575b50808311613614575081925b8396846135af575b5050506127b19250612421565b803b15610634575f92836084926040519889958694632b2e0b7b60e21b8652600486015260018060a01b0316602485015260448401528760648401525af1928315611fea576127b193613604575b80806135a2565b5f61360e91612193565b5f6135fd565b9261359a565b90506020813d602011613644575b8161363560209383612193565b8101031261063457515f61358e565b3d9150613628565b50505090505f905f90565b9392905f9082156137e457600154604051633de222bb60e21b81526001600160a01b039788166004820181905286891660248301819052989096921690602081604481855afa908115611fea575f916137b2575b508086116137ac575084955b8698876136cf575b505050505050906127b191612421565b823b156106345760845f92836040519586948593632b2e0b7b60e21b8552600485015260018060a01b038a16602485015260448401528b60648401525af18015611fea57613797575b506001546001600160a01b031690813b1561042e5760405163723301f360e01b81526001600160a01b039384166004820181905291909316602484015260448301869052606483015282908290608490829084905af180156105f057613782575b808080806136bf565b61378d828092612193565b6104305780613779565b6137a49193505f90612193565b5f915f613718565b956136b7565b90506020813d6020116137dc575b816137cd60209383612193565b8101031261063457515f6136ab565b3d91506137c0565b5050505090505f905f90565b5f9282158015613906575b6139005760808101805160e083015191936138269286926001600160a01b0391821692911690613657565b80929150613882575b5050516001600160a01b031690813b156105ec5782916024839260405194859384926312a73fe360e21b845260048401525af180156105f057613870575050565b61387b828092612193565b6104305750565b60a001516001600160a01b03169081156114a65782516001600160a01b031690823b156106345760405163117de2fd60e01b81526001600160a01b039290921660048301526024820152905f908290604490829084905af18015611fea576138eb575b8061382f565b6138f89193505f90612193565b5f915f6138e5565b50505050565b5060808101516001600160a01b0316156137fb565b5f9282158015613a19575b6139005760808101805160e083015191936139519286926001600160a01b0391821692911690613657565b8092915061399b575b5050516001600160a01b031690813b156105ec578291602483926040519485938492633e36a51760e01b845260048401525af180156105f057613870575050565b60a001516001600160a01b03169081156114a65782516001600160a01b031690823b156106345760405163117de2fd60e01b81526001600160a01b039290921660048301526024820152905f908290604490829084905af18015611fea57613a04575b8061395a565b613a119193505f90612193565b5f915f6139fe565b5060808101516001600160a01b031615613926565b90613a525750805115613a4357602081519101fd5b63d6bda27560e01b5f5260045ffd5b81511580613a83575b613a63575090565b639996b31560e01b5f9081526001600160a01b0391909116600452602490fd5b50803b15613a5b56fe360894a13ba1a3210667c828492db98dca3e2076cc3735a920a3ca505d382bbcf0c57e16840df040f15088dc2f81fe391c3923bec73e23a9662efc9c229c6a00a264697066735822122057266ca64d6a890500650acb7f49e18b3a62bd5260475a3a149e052acde0f5b264736f6c634300081e0033f0c57e16840df040f15088dc2f81fe391c3923bec73e23a9662efc9c229c6a00","linkReferences":{}},"methodIdentifiers":{"DEFAULT_ADMIN_ROLE()":"a217fddf","UPGRADE_INTERFACE_VERSION()":"ad3cb1cc","WhitelistedLiquidators(address)":"c7d19337","_totalReservedMargin(address)":"3811ff31","addMargin(bytes32,uint256)":"9e0a7378","closePosition(bytes32,uint128,uint256)":"fe2b5238","deposit(address,uint256)":"47e7ef24","getAccountValue(address)":"5ae80951","getMaintenanceMargin(address,bytes32)":"ea181b62","getMarginRatio(address,bytes32)":"fd715d17","getNotional(address,bytes32)":"88f59ddc","getPosition(address,bytes32)":"0fa8f516","getRoleAdmin(bytes32)":"248a9ca3","grantRole(bytes32,address)":"2f2ff15d","hasRole(bytes32,address)":"91d14854","initialize(address,address,address)":"c0c53b8b","isLiquidatable(address,bytes32)":"2e16fd6b","liquidate(address,bytes32,uint128)":"512159db","marketRegistry()":"ecb96fe6","marketRiskParams(bytes32)":"d22460bd","openPosition(bytes32,bool,uint128,uint256)":"d5528f5d","pauseMarket(bytes32,bool)":"13fa5292","positions(address,bytes32)":"34176a6d","proxiableUUID()":"52d1902d","removeMargin(bytes32,uint256)":"97709b5d","removeWhitelistedLiquidator(address)":"f2d7e950","renounceRole(bytes32,address)":"36568abe","revokeRole(bytes32,address)":"d547741f","setRiskParams(bytes32,uint256,uint256,uint256,uint256)":"468e0000","setWhitelistedLiquidator(address,bool)":"21e49bfd","settleFunding(bytes32,address)":"62e6b34c","supportsInterface(bytes4)":"01ffc9a7","upgradeToAndCall(address,bytes)":"4f1ef286","vault()":"fbfa77cf","withdraw(address,uint256)":"f3fef3a3"},"id":62}